:020000040800F2
:10000000F034002091020008974000089F3E00084D
:10001000954000089F1000089D6500080000000042
:100020000000000000000000000000001542000871
:10003000F1110008000000001342000821420008EE
:10004000AB020008AB020008AB020008AB020008DC
:10005000AB020008AB020008AB020008AB020008CC
:10006000AB020008AB020008AB020008AB020008BC
:100070001D110008AB02000829110008AB0200089E
:10008000AB020008AB020008AB020008AB0200089C
:10009000AB020008AB020008AB020008AB0200088C
:1000A000AB020008AB020008AB020008AB0200087C
:1000B000AB020008AB020008AB020008AB0200086C
:1000C000AB020008AB020008AB020008AB0200085C
:1000D000AB020008454A0008AB020008AB0200086A
:1000E000AB020008AB020008AB020008AB0200083C
:1000F000AB020008AB020008AB020008AB0200082C
:10010000AB020008AB020008AB020008AB0200081B
:10011000AB020008AB020008AB020008AB0200080B
:10012000AB020008AB02000835110008AB02000862
:10013000AB020008AB020008AB020008AB020008EB
:10014000AB020008AB020008AB02000899400008AF
:10015000AB020008AB02000841110008AB02000826
:10016000AB020008AB020008AB020008AB020008BB
:10017000AB020008AB020008AB0200080000000060
:10018000AB020008AB02000800F002F800F070F8C3
:100190000AA090E8000C82448344AAF10107DA45E2
:1001A00001D100F065F8AFF2090EBAE80F0013F0C4
:1001B000010F18BFFB1A43F0010318471C6600002B
:1001C0003C6600000A444FF0000C10F8013B13F0AD
:1001D000070408BF10F8014B1D1108BF10F8015BA0
:1001E000641E05D010F8016B641E01F8016BF9D193
:1001F00013F0080F1EBF10F8014BAD1C0C1B09D1EA
:100200006D1E58BF01F801CBFAD505E014F8016B5B
:1002100001F8016B6D1EF9D59142D6D370470000ED
:100220000023002400250026103A28BF78C1FBD8FF
:10023000520728BF30C148BF0B607047642900F0E7
:100240000181752900F0FE80782900F037810020B7
:1002500070471FB506F02CFA00F016FF04000020CE
:10026000002106F00FFA401C60601FBD10B510BDE4
:1002700000F0D2FE1146FFF7ECFF06F0B1F900F0F6
:10028000F9FE03B4FFF7F2FF03BC00F001FF00002A
:100290000948804709480047FEE7FEE7FEE7FEE71A
:1002A000FEE7FEE7FEE7FEE7FEE7FEE70448054956
:1002B000054A064B70470000B94200088901000852
:1002C000F02E0020F0340020F0300020F03000202C
:1002D00053EA020C00F069802DE9F04B4FF0000664
:1002E000002B1FBFB3FA83F503FA05F424FA05F6D1
:1002F0005E4012BF1643B2FA82F502FA05F4C5F168
:1003000020051EBF22FA05FC44EA0C04203556EAFB
:10031000044C4FEA144418BF641C4FF000084FF01F
:100320000009904271EB030C39D3002919BFB1FACF
:1003300081F701FA07F6B0FA80F700FA07F6C7F17D
:1003400020071EBF20FA07FC46EA0C062037B6FB42
:10035000F4FCA7EB0507103F07F01F0BCBF12006BD
:100360000CFA0BFB2CFA06F644BFB3460026202FEE
:10037000A4BF5E464FF0000B5BEA060C08BF4FF0CF
:10038000010B19EB0B09ABFB027C48EB0608C01B09
:1003900006FB02CC0BFB03CC71EB0C01C1E70B4657
:1003A000024641464846BDE8F08B13B54FF00000C9
:1003B0004FF00001AFF30080BDE81C407047000023
:1003C0000FB41CB50C0007AA009001D02044401EB9
:1003D000074B7B4469460190069800F0C2FB002C55
:1003E00003D06946002000F0CFFB1CBC5DF814FB75
:1003F000BD07000070B5044685690068C10601D5D7
:10040000302600E02026C00707D070BDD4E90121C6
:1004100030469047206A401C20626D1EF6D570BDA4
:1004200070B5044685690078C00707D170BDD4E96E
:10043000012120209047206A401C20626D1EF6D5C5
:1004400070BD00002DE9F0410646002410687529B2
:10045000314616A510D0AFF30080002802DA4042E2
:1004600013A507E031688A0701D512A502E0490704
:1004700004D511A5012401E0AFF3008000210A2278
:1004800006F1240709E0B0FBF2FCB0FBF2F302FB3B
:100490001C00303078541846491C0028F3D12346FC
:1004A0002A463046BDE8F04100F0FDBA00000000E9
:1004B0002D0000002B0000002000000070B5044655
:1004C0000D4621461068AFF300802188090502D54A
:1004D0000F4A7A4402E00E4A7A440E32002104F1B7
:1004E000240305E000F00F060009965D5E54491CE8
:1004F0000028F7D120780023000704D5702D02D002
:1005000009B1022311322046BDE8704000F0CBBA99
:10051000046200002DE9F05F894604464FF0000AAE
:10052000DFF874B1FB44C0F820A02046E16888479A
:10053000002874D0252806D0D4E901219047206AEC
:10054000401C2062F1E700265F462046E1688847AC
:100550002028054607DB312D05D2781910F8200C2C
:1005600008B10643F1E7B00701D526F00406C4F848
:100570001CA00027C4F818A02A2D09D0284606F090
:100580001EF838B304EB8708303DC8F8185019E05E
:1005900059F8041B204604EB87029161E168884703
:1005A000012F054618D1E069002820DA26F0200640
:1005B0001DE0D8F8180000EB800005EB4000303853
:1005C000C8F818002046E1688847054605F0F7FF9F
:1005D0000028EED1012F0AD02E2D08D12046E16847
:1005E00088477F1C0546022F46F02006C4DBA06921
:1005F000002803DA404246F00106A061F00701D06E
:1006000026F010066C2D0BD0682D09D04C2D39D05A
:100610006A2D35D0742D35D07A2D33D016E038E0E0
:10062000E1682F4620468847B842054609D16C2F1D
:1006300026D04FF48060E16806432046884705468F
:1006400004E06C2F1AD04FF4807006430DB3A5F16F
:100650004100192802D8203546F400664A4629464A
:10066000204626604E46FFF7E9FD80B101280BD0F9
:10067000F61D26F0070000F1080956E74020E4E7E0
:100680008020D8E70020D6E706F104094DE7284688
:1006900052E7206ABDE8F09FDA6100000FB400B5B0
:1006A0008DB010A9099000910B904FF0FF300A9087
:1006B00000200C90064878440690064878446A4624
:1006C00007900F9909A800F081FA0DB05DF814FBAE
:1006D000330500004B0500002DE9FF5F1D464FF07C
:1006E000FF3B91464FF000085F46D5E90146A969F6
:1006F00001987F1C8847296A824688470028F6D1DE
:10070000BAF1FF3F0CD0002E24F4C06419DD60065E
:1007100014D5BAF12B0F09D0BAF12D0F0ED103E089
:10072000584604B0BDE8F09F44F48064A96901987C
:100730007F1C8847761E8246002E02DDBAF1300FFC
:1007400003D0B9F1000F26D032E0A969761E0198D6
:100750007F1C44F400748847002E824605DDBAF100
:10076000780F06D0BAF1580F03D0B9F1000F10D0AE
:100770001EE0B9F1000F02D0B9F1100F18D1A9692C
:10078000761E01987F1C24F400748847824610204E
:1007900002E0082000E00A20814609E0A96908FB80
:1007A0000908761E01987F1C44F40074884782462D
:1007B000002E05DD4946504600F0F3F90028EDDA39
:1007C000E96901988847A00502D46FF00100A8E705
:1007D000E00725D1600613D5600502D5C8F10000F9
:1007E00000E0404629680A1D2A600968220501D5F3
:1007F000087015E0220701D5088011E008600FE0BD
:100800002868011D29600068210502D580F8008054
:1008100006E0210702D5A0F8008001E0C0F80080C2
:1008200038467EE72DE9FF5F4FF0000899461446F1
:1008300046469169D2E901A7DDF838B001988847AA
:10084000054659EA0B0005D009E0A1690198761C1C
:1008500088470546216A284688470028F5D1681C44
:1008600003D05FEACA7005D015E04FF0FF3004B046
:10087000BDE8F09F2068011D2160D0F800800AE0EB
:100880005FEACA7001D108F8015BA169761C019882
:100890007F1E88470546002F1ADD681C18D0B9F165
:1008A000000F0DD0E81705EBD060421120F01F00BB
:1008B00059F822102A1A012090400142E0D107E0A5
:1008C000BBF1000FDCD12846216A88470028D7D029
:1008D000E16901988847BBF1000F07D1002E05DDC3
:1008E0005FEACA7002D1002188F80010A068B842FF
:1008F00003DDBBF1000F03D017B16FF00100B6E7C5
:100900003046B4E7032A40F2308010F0030C00F0C8
:10091000158011F8013BBCF1020F624498BF11F839
:1009200001CB00F8013B38BF11F8013BA2F10402F2
:1009300098BF00F801CB38BF00F8013B11F003036A
:1009400000F07481083AC0F0088051F8043B083A7E
:1009500051F804CBA0E80810F5E7121D5CBF51F870
:10096000043B40F8043BAFF30080D20724BF11F8EA
:10097000013B11F801CB48BF11F8012B24BF00F84F
:10098000013B00F801CB48BF00F8012B70474FF046
:1009900000020429C0F0128010F0030C00F01B804C
:1009A000CCF1040CBCF1020F18BF00F8012BA8BF5A
:1009B00020F8022BA1EB0C0100F00DB85FEAC17C1E
:1009C00024BF00F8012B00F8012B48BF00F8012BD1
:1009D00070474FF0000200B5134694469646203902
:1009E00022BFA0E80C50A0E80C50B1F12001BFF4E8
:1009F000F7AF090728BFA0E80C5048BF0CC05DF84E
:100A000004EB890028BF40F8042B08BF704748BF9B
:100A100020F8022B11F0804F18BF00F8012B70470F
:100A20004FF0013C50F8042B51F8043B9A4221D17D
:100A3000A2EB0C03934313EACC1317D150F8042B09
:100A400051F8043B9A4215D1A2EB0C03934313EAED
:100A5000CC130BD150F8042B51F8043B9A4209D126
:100A6000A2EB0C03934313EACC13DBD04FF000004E
:100A7000704700BFD01A01BAB1FA81F101F0180134
:100A800022FA01F0CB40C1F12001DBB2C0B2C01AA2
:100A90002CFA01F3D11A914311EAC311E6D1704740
:100AA0007047704770472DE9F0470D4699469246CA
:100AB000044600F124080168880604D5E06921F0A5
:100AC0001001216000E00120A84201DD471B00E089
:100AD0000027A1697A1902EB0900081AA0612078A1
:100AE000C00602D42046FFF785FC002608E0D4E9C2
:100AF00001211AF806009047206A401C761C2062EB
:100B00004E45F4DB2078C0060AD52046FFF772FC7C
:100B100006E0D4E9012130209047206A401C206281
:100B2000381EA7F10107F4DC07E0D4E9012118F829
:100B300005009047206A401C2062281EA5F101058F
:100B4000F3DC2046FFF76CFC2078000602D502207B
:100B5000BDE8F0870120FBE701694A1C02610878C3
:100B6000704700B58FB0CDE90131002105910549ED
:100B70007944CDE9031011466846FFF7CBFC0FB06E
:100B800000BD0000E5FFFFFF0A6802F8010B0A60E4
:100B90007047D1E900239A4202D2531C0B601070B7
:100BA00070473A2800D2303820F02002412A01D381
:100BB000A2F13700884201D34FF0FF3070470000A8
:100BC000026811441378016018467047D1600549E6
:100BD000794451610449794411620021116111463F
:100BE00000F060B8EDFFFFFFB7000000426842B1BF
:100BF000016811F8013B23B1521EC0E900121846EA
:100C000070470121C160881E704742685AB1C368AD
:100C1000016843B983688B4205D0491E521CC0E964
:100C20000012002070474FF0FF30704710B5203A97
:100C3000C0F00B80B1E81850203AA0E81850B1E895
:100C40001850A0E81850BFF4F5AF5FEA027C24BF4B
:100C5000B1E81850A0E8185044BF18C918C0BDE842
:100C600010405FEA827C24BF51F8043B40F8043B0B
:100C700008BF7047D20728BF31F8023B48BF11F8C0
:100C8000012B28BF20F8023B48BF00F8012B70471A
:100C900010B5044600F0E6F90068005D00F00100C0
:100CA00010BD00002DE9F34F4FF0000A0C465646E8
:100CB0008DB001200C9001F10C000B9062690B9833
:100CC0000121904705002DD0252D2CD0216A884781
:100CD000C0B162690B9801219047216A88470028BA
:100CE000F7D16269411E0B98904700E0761CA1691C
:100CF0000D988847216A88470028F7D1E1690D9847
:100D00008847DBE7A1690D988847A842074601D1CB
:100D1000761CD3E7E1690D9888477F1C02D1BAF1B0
:100D2000000F6FD06BE162690B9800273D46394692
:100D300090472A2804D162690B9801219047012528
:100D4000DFF8D08262690B9801219047A0F1300151
:100D50000A290AD24745E5DC07EB870100EB41078A
:100D6000303FDFD445F01005ECE7E90601D46FF021
:100D700000476C280AD04C2814D0682815D06A285F
:100D80000DD074281CD07A281AD01DE062690B9807
:100D9000012190476C2802D045F0040514E045F08D
:100DA00002050DE045F020050AE062690B9801217B
:100DB0009047682802D045F0080505E045F4006535
:100DC00062690B9801219047C4E9015765283DD01D
:100DD00019DC58287AD00CDC452837D004DC2528CB
:100DE00026D041289ED131E046282FD0472899D1DE
:100DF0002CE05B2877D0612828D063287CD0642839
:100E000023D15AE0F6E06F2848D008DC66281DD0D0
:100E100067281BD0692821D06E2816D127E07028BA
:100E200045D0732868D0752847D078280DD14DE07B
:100E3000A1690D988847252805463FF469AFE16907
:100E40000D9888476D1C3FF46AAFD8E00D99234692
:100E50006A466FF00100AFF30080C5E045F0400046
:100E600023464FF000026060A80736D43EE0E80752
:100E70007FF447AF2068011D21600068290501D576
:100E800006701BE7290701D5068017E7A90703D5D8
:100E9000F117C0E9006111E706600FE745F0400077
:100EA00023464FF008026060A80716D41EE040F603
:100EB0000E0125EA0100606016E045F0400023467F
:100EC0004FF00A026060A80707D40FE045F0400029
:100ED0006060A80708D5234610220D996FF0010025
:100EE000AFF3008080E007E0102223460D996FF0F9
:100EF0000100FFF7F1FB77E04FF0000963284F4650
:100F0000C8464B46CB4602D05B2806D038E0E80600
:100F100001D40120A060012732E06269D4F80CB04E
:100F20000B98012190475E2807D14FF001094946EF
:100F30006269D4F80CB00B989047216939B9002147
:100F40000A4603AB43F82120491C0829FADBD8B331
:100F5000216949B308F1010862690B9801219047A2
:100F60005D28F4D1B9F1000F09D0002003A951F890
:100F70002020D24341F82020401C0828F7DB03AB97
:100F80002069002820794FEA40701ED05B46224637
:100F9000CDF80080CDE901970D9900286FF0010090
:100FA00020DAAFF300801FE0C11703AA00EBD16184
:100FB0004B1121F01F0102EB8302411A136801203B
:100FC000884003431360C7E719E00D9922460028C3
:100FD0006FF00100009702DAAFF3008004E0FFF742
:100FE00021FC01E0AFF3008000280ADA401C06D1A2
:100FF0000C9820B14FF0FF300FB0BDE8F08F504695
:10100000FAE7E90701D10AF1010A064400200C9031
:1010100054E60000CCCCCC0C754600F031F8AE465E
:1010200005006946534620F00700854618B020B5F4
:10103000FFF73CF9BDE820404FF000064FF00007F5
:101040004FF000084FF0000B21F00701AC46ACE870
:10105000C009ACE8C009ACE8C009ACE8C0098D46DD
:101060007047000010B500F00FF8001D10BD00BF64
:10107000155600000446AFF300802046FFF701F943
:10108000004870478C2E002000487047AC2E00208E
:1010900001491820ABBEFEE7260002007047FEE7BC
:1010A000002070470020704710B500220449054811
:1010B00003F0B8FE0449034803F0A7FE002010BD6A
:1010C00034100020580300203408002010B50446D6
:1010D000096800F0E9FE2146034803F096FE024845
:1010E00003F06CFE002010BD580300200020704764
:1010F000094A10B5D2F8BC22D2F814220AB1012054
:1011000010BD0A460146044803F08CFEBDE81040BD
:10111000014803F001BF000058030020014801F01E
:101120004FB8000098020020014801F049B80000C3
:10113000F8020020014801F043B800003802002006
:10114000014801F03DB80000D801002001681823D3
:10115000CAB2103AB2FBF3F2054B6FF30901032A4E
:101160009B5CC36500D9091D816508467047000076
:10117000BA66000810B5014600208B698A6A4FF0F4
:10118000C07453B1B3F5005F15D072B1012A0CD011
:10119000022A0AD0032A09D104E01AB1012A06D092
:1011A000022A03D1C96AC90100D5012010BDC96A4C
:1011B000A142FAD010BD002AF7D0012AF2D0022AAB
:1011C000F3D0032AF3D010BD30B50468256825F4A8
:1011D00080252560046863608368402B036803D022
:1011E00099600068C26030BD9A600068C16030BD1F
:1011F0007047B5EEC00AF1EE10FA01DAB1EE400A1E
:1012000070470000F0B5A1B00D460646342114A881
:10121000FFF7DFFB14A803F08FF8EFF3108472B62A
:10122000264A92F8800092F88110884292F8800055
:1012300092F88110A0EB010000D21030C3B21F4819
:10124000883001784078D2F8842004B962B69DF8DD
:1012500082E09DF881C09DF880709DF87F40CDE9C7
:1012600012CECDE910479DF878709DF877409DF833
:101270007AE09DF879C0CDE90C47CDE90ECEBDF8F6
:1012800072E0199CBDF87070DDF86CC0CDE90847BC
:10129000CDE90ACEDDE917CEDDE91547CDE90447F2
:1012A000CDE906CE149CCDE90021CDE90204044A23
:1012B00029463046FFF784F821B0F0BD6C280020A5
:1012C000706700082DE9F0410F462DED028B1D4699
:1012D000817C044600269FED378A134640F2DC509D
:1012E000082931D2DFE801F0041321293442545F88
:1012F000B0EE480AE02000F0BDFCB0EE480AE02065
:1013000000F096FC267466740120656149E0227C39
:1013100002210AB1A17416E06269AA1A824213D9A5
:1013200084ED008A84ED018AF4E7322219463846BA
:1013300000F030FC0320656133E06169691A814285
:1013400002D90420A0746561BDEC028BBDE8F08178
:10135000B7EE000AE02000F08DFCB7EE000AE020B6
:1013600000F066FC6674052065611AE0627C062167
:101370000AB1A174E8E76269AA1A8242E4D994ED3D
:10138000000A84ED020A94ED010A84ED030AF0E7F5
:101390003222B1EE400A1946384600F0FBFB072026
:1013A0006561A074D0E76169691A8142CCD90820CF
:1013B000F7E700000000000010EE100A064988421E
:1013C00002DDB3EE0E0A704710EE100A03498842A0
:1013D000F9D9BBEE0E0A70470000F0410000F0C1E1
:1013E0004FF47A71884202DC4942884201DA0846A9
:1013F000704700B27047000070B50179C57861F39D
:101400000704417961F30F248179C07961F31744AE
:1014100060F31F6401F056F92B4A0121D02D24D02E
:1014200007DCC02D1DD0C12D1DD0CC2D00D11461E5
:1014300070BDD12D1ED0244A244B283202F1180051
:10144000E12D1CD0E22DF3D11B78022B2ED0032BE3
:10145000EED1827C012A34D0052AE9D1C4604174DE
:1014600070BD146070BD546070BD946082F824102B
:10147000506170BDD46082F82510906170BD1B78FA
:10148000022B08D0032BF9D1827C012A0CD0052A2B
:10149000F4D18460E3E7907C012803D00528EDD1E6
:1014A000946009E014600AE004600BE0907C01287D
:1014B00004D00528E2D1D460517470BD5460117419
:1014C00070BD4460017470BD182900200401002023
:1014D00070B5EFF3108472B688212D48FFF779FAC2
:1014E0002B48203000258566C566056745670921BC
:1014F0007830FFF76EFA26482821A03040F8015FC7
:10150000456005722248AC30FFF763FA2048182185
:10151000D430FFF75EFA1E481821EC30FFF759FA75
:1015200014211C48FFF755FA04B962B6194CB3EE02
:101530000E0A84ED000A84ED010A9FED170A84ED7E
:10154000020A84ED030A01F0BDF82061012000F0D9
:10155000A1FD052000F0A6FF022000F09BFD052064
:1015600000F0A0FF01210022084600F063FD0520E5
:1015700000F098FF00220121022000F05BFD074CE3
:101580000420207001F09EF86060657070BD00005E
:101590006C280020702900200000000004010020B9
:1015A0002DE9F041524C05462DED028B00272078A5
:1015B000504EB6EE008A4FF07E5805287ED2DFE806
:1015C00000F0032A37628C00606842F21071281A1A
:1015D00088421CD3012000F05DFD052000F062FF71
:1015E000022000F057FD052000F05CFF01210022E1
:1015F000084600F01FFD052000F054FF00220121E5
:10160000022000F017FD0120207065606770BDECBE
:10161000028BBDE8F0816068281AB0F57A7FF6D3B6
:10162000022020703348656018216770303824E04C
:1016300030482B46B0EE000A002201213038FFF777
:1016400041FE2C483038817C0829E0D390ED020A15
:10165000D0ED000A30EE600AFFF7CBFD20EE080A5D
:1016600010EE100A404501DD86ED000A03202070CF
:1016700020486560182167701838BDEC028BBDE802
:10168000F041FFF7A6B91B482B46B0EE000A002236
:1016900002211838FFF716FE16481838817C0829F1
:1016A000B5D390ED030AD0ED010A30EE600AFFF7E2
:1016B000A0FD20EE080A10EE100A00E014E04045FC
:1016C00001DD86ED010A04209FED0B0A207086EDF6
:1016D000020A86ED030A356199E7BDEC028B2846C4
:1016E000BDE8F04100F00AB8277065608FE70000A0
:1016F00004010020702900200000000070B54F4D4B
:101700002DED048B2969411A14297CD3A5F15804C5
:10171000286194F82410002975D094F82510002928
:1017200071D0D4E90512531A002B00DD1146401A7E
:10173000C8287FD894ED020AFFF75BFD10EE100A6F
:101740003F4EB04276DA94ED030AFFF752FD10EEF9
:10175000100AB0426EDAD4ED028A94ED038AB0EE3C
:10176000680AFFF746FD10EE100A364C9FED369AD8
:10177000A04201DAF0EE498AB0EE480AFFF739FDDF
:1017800010EE100AA04201DAB0EE498AF5EEC08AE6
:10179000F1EE10FA04D1B5EEC08AF1EE10FA49D09C
:1017A000D5ED000A88EEA00AD5ED010AC8EE208A20
:1017B000D5ED020A30EE800AFFF7FEFDB0EE408A5A
:1017C00095ED030A30EE280AFFF7F6FDF0EE408AA9
:1017D00095ED020A78EE409A95ED030A38EEC09A2C
:1017E000B0EE690AFFF705FD10EE100A174C4FF432
:1017F0009676A0420ADD3246B0EE690A0021012049
:1018000000F0C8F900E015E085ED028A052000F03F
:1018100049FEB0EE490AFFF7ECFC10EE100AA042B8
:1018200008DD3246B0EE490A0021022000F0B2F98C
:10183000C5ED038ABDEC048B70BD0000702900204B
:101840000000614400004040000000000AD7233C33
:1018500030B597B0044600200290019003900490A8
:101860000590169001AA59A12046FEF717FF0128FE
:101870004ED101A907E000BFA0F16102192A01D8E9
:1018800020380870491C08780028F5D151A101A81A
:10189000FFF7C6F818B351A101A8FFF7C1F800B3CC
:1018A00050A101A8FFF7BCF8E8B14FA101A8FFF7CC
:1018B000B7F800282ED04DA101A8FFF7B1F80028F5
:1018C0004AD04CA101A8FFF7ABF800285BD04BA190
:1018D00001A8FFF7A5F8002874D04AA05BE04D48A6
:1018E00059E04DA012E005AA4DA12046FEF7D6FE14
:1018F000012801D04CA04EE0059800B1012000F075
:10190000D1F9059808B14CA000E04DA000F006F90F
:1019100017B030BD16AB05AA4BA12046FEF7BEFEA0
:10192000022801D04BA036E00598FFF759FD044688
:101930001698FFF755FD0546402106A8FFF749F820
:101940002946204600F0CCF9234646A2402106A8AD
:101950000095FEF735FD32E005AA31A12046FEF7DD
:101960009DFE012801D043A015E00598FFF738FD42
:101970000446402106A8FFF72CF8204600F0CBF9DA
:10198000234640A217E005AA25A12046FEF786FEC1
:10199000012803D03EA000F0CFFAB9E70598FFF781
:1019A0001FFD0446402106A8FFF713F8204600F06B
:1019B000BCF923463AA2402106A8FEF701FD06A87D
:1019C000A4E7FFE700F0BCF938A09FE725313573A5
:1019D0000000000048454C500000000053544154A2
:1019E00000000000454E000056454C0056454C3165
:1019F0000000000056454C320000000053544F5088
:101A00000000000045525220554E4B4E4F574E207D
:101A1000434D4400146700084F4B20535441540079
:101A2000252A7320256C640045525220454E2046DD
:101A30004F524D41540000004F4B20454E20310085
:101A40004F4B20454E203000252A7320256C642002
:101A5000256C64004552522056454C20464F524D4D
:101A6000415400004F4B2056454C202564202564EE
:101A7000000000004552522056454C3120464F523E
:101A80004D4154004F4B2056454C312025640000F9
:101A90004552522056454C3220464F524D4154003B
:101AA0004F4B2056454C3220256400004F4B2053AD
:101AB000544F5000024810F8801F417070470000DA
:101AC0006C280020401CC0B2102800D300207047B2
:101AD0002DE9F041104C074694F880603046FFF73E
:101AE000F1FF94F881100546A9420AD194F88100CB
:101AF000FFF7E8FF84F88100D4F88400401CC4F8A4
:101B0000840004EBC600396801607968416084F89C
:101B10008050BDE8F08100006C28002070B5C0B096
:101B2000054680216846FEF754FF802120A8FEF775
:101B300050FF802120A8FFF765FB7F21284604F095
:101B400045FD0446024629466846FEF7DBFE6D4623
:101B50007F2C0BD220202855641C7F2C06D27C21A0
:101B60002955641C7F2C01D22855641CC4F17F01C7
:101B700020A804F02BFD06462819324620A9FEF7BE
:101B8000C1FEA11900206854684600F0D5F940B0A4
:101B900070BD000070B515462DED028B84B0B0EE1F
:101BA000408A0C460646FFF724FBDFED150A9FED41
:101BB000151A20EE200AC0EE010AB6EE000A30EE39
:101BC000800ABCEEC00A10EE103A002B14D0B5EE1D
:101BD000C08AF1EE10FA03D2012124B1002102E003
:101BE000002104B101210020CDE9003002905023F2
:101BF0002A46304600F02EFA04B0BDEC028B70BDD0
:101C0000000048450000B44338B5012303EBE173FD
:101C10000AB183F0010383F00104002900DA49428C
:101C20008AB2002100915023214600F053FA38BDBA
:101C30001CB500218DF80010FF218DF80110FA214C
:101C40008DF802108DF8030010EE100A0A238DF8AB
:101C50000400010A8DF80510010C8DF80610000E25
:101C60008DF8070008226946014802F061F81CBDA2
:101C7000900100200A4900220A70FF224A70FA22CD
:101C80008A70C87010EE100A0871020A4A71020CBC
:101C90008A71000EC87108210148FFF729BA0000B7
:101CA0000C0100207CB5022100258DF80010ADF854
:101CB0000450ADF802508DF80600EFF3108472B6B0
:101CC000FFF7F8FE05480570457045606846FFF768
:101CD000FFFE002C00D162B67CBD0000F42800207D
:101CE0001CB50C4601218DF80010FFF779FBADF80B
:101CF00002002046FFF774FBADF8040000208DF8C9
:101D00000600EFF3108472B66846FFF7E1FE002C80
:101D100000D162B61CBD10B5FFF762FB0146002280
:101D2000BDE810400120FFF76FBF10B5FFF758FB6B
:101D300001460022BDE810400220FFF765BF000009
:101D40007CB5032000258DF80000ADF80450ADF8F7
:101D500002508DF80650EFF3108472B6FFF7AAFE1A
:101D600005480570457045606846FFF7B1FE002CD8
:101D700000D162B67CBD0000F42800202DE9F843B4
:101D80004FF00009454C03E04068C0B200F0EEF8A7
:101D900020680168C9438906F6D50168C943090767
:101DA00002D401684068009000F08CFC0646FFF702
:101DB000F7FB3B480078042826D1EFF3108472B675
:101DC000384D28784FF00108C0B905F10801A1F19C
:101DD000900797F8810097F88020824211D007EB96
:101DE000C00213680B6052684A60FFF76BFE87F809
:101DF000810085F8008085F801906E606868301A6F
:101E000004D5002C00D162B6BDE8F88325486838B7
:101E1000026F416F6B781BB185F800902CB105E023
:101E200085F80180761D6E60F8E762B6D0B20128B1
:101E300003D0022801D00328E6D14BB101281CD0E1
:101E400002281FD000210220BDE8F84300F032B97B
:101E5000012804D0022807D000210120F4E7BDE8C2
:101E6000F8431014FFF757BFC1F3074008B1012131
:101E700000E00021002201200CE0BDE8F84308B298
:101E8000FFF753BFC1F3074008B1012100E0002173
:101E900000220220BDE8F84300F0CCB890010020F9
:101EA00004010020F42800202DE9F0470E46070029
:101EB00032D0002E30D00025DFF860A0A946DFF830
:101EC000608027E07C5D204600F082F80D2C0FD06A
:101ED0000A2C0DD0A4F120005F281AD2B8F8020015
:101EE0005F2811D20AF80040401CA8F8020010E058
:101EF000B8F8021069B14C460AF801900748FFF79C
:101F0000A7FCA8F8024004E0A8F8029005A000F0A1
:101F100013F86D1CB542D5D3BDE8F0870C2800201E
:101F200004010020455252204C494E4520544F4F49
:101F3000204C4F4E4700000070B505467D2104F04F
:101F400045FB0446024629460748FEF7DBFC0649E6
:101F50000D200855641C0A200855641CA1B2BDE878
:101F600070400148FFF7C4B88429002070B5174CB1
:101F70000122217A39B10025012906D002290DD08C
:101F8000082918D315E088B170BDFF2801D018B119
:101F90000FE06070022007E0207070BDFA2801D0C9
:101FA00020B106E0A0700320207270BD2070227264
:101FB00070BD257270BD6054491CC8B220720828DB
:101FC000F8D30248FFF718FAF3E7000004290020CD
:101FD00070B5174C0122217A39B10025012906D0AC
:101FE00002290DD0082918D315E088B170BDFF284B
:101FF00001D018B10FE06070022007E0207070BDC2
:10200000FA2801D020B106E0A0700320207270BD34
:102010002070227270BD257270BD6054491CC8B218
:1020200020720828F8D30248FFF7E6F9F3E700002A
:102030000D290020064B1870F3205870AB209870C3
:10204000D9701A716B2058710621184600F030B80B
:1020500088250020F0B40E4CDDE90457069E207060
:10206000FD206070A170100AE07022716371280E6B
:10207000A071280CE071280A20726572A772E672BE
:102080006B2020732046F0BC0D2100F011B8000039
:10209000A8250020054908700A2048706D20887026
:1020A0006B20C8700421014800F002B858230020BA
:1020B00002F096B9064A1070FE2050709820907079
:1020C000D1706B20107105211046FFF7F1BF0000A1
:1020D000B825002030B4094C029D2070F6206070B5
:1020E000A170100AE07022716371A5716B20E0711C
:1020F000204630BC0821FFF7DBBF000098250020F8
:1021000072B6FEE72DE9F0410446876D00F0DAFA79
:10211000064694F835000025022806D08020606528
:1021200084F834500120BDE8F0812068016821F076
:10213000160101602068416921F080014161206C35
:1021400008B9A06C20B12068016821F00801016085
:102150002068016821F0010101600CE000F0B2FA92
:10216000801B052807D920206065032084F83500EE
:1021700084F83450D7E720680068C007EED194F89F
:102180005C103F208840B860012084F8350084F856
:1021900034500020C7E790F83510022903D0802181
:1021A000416501207047052180F8351000680168FD
:1021B00021F00101016000207047406D7047000070
:1021C0002DE9F84304464FF00009CDF8009063482C
:1021D0004FF41651A56D0068B0FBF1F72E6894F826
:1021E0005C10082000FA01F131420FD021680A6822
:1021F00052070BD50A6822F004020A6094F85C10BA
:102200008840A860606D40F00100606594F85C1043
:102210004FF0010808FA01F0304208D021684969FE
:10222000090604D5A860606D40F00200606594F86E
:102230005C1004208840304208D021680968890772
:1022400004D5A860606D40F00400606594F85C10EF
:1022500010208840304218D021680968090714D539
:10226000A86020680168490304D50068000308D508
:10227000A16C07E00168C90503D4016821F00801D9
:102280000160216C09B12046884794F85C10202039
:102290008840304231D021680968C9062DD5A86030
:1022A00094F8350005282068016806D0490347D511
:1022B000006800031DD4616C1CE021F01601016070
:1022C0002068416921F080014161206C08B9A06C4F
:1022D00020B12068016821F00801016094F85C10C9
:1022E0003F208840A86084F8358084F83490216DC0
:1022F0001FE0E16B09B120468847606D00282BD0B4
:10230000606DC00714D0052084F83500206801688E
:1023100021F0010101600098401C0090B84203D8F0
:1023200020680068C007F6D184F8358084F83490BE
:10233000E16C002910D001B02046BDE8F043084709
:102340000168C905D5D4016821F01001016084F845
:10235000358084F83490CCE7BDE8F8837000002025
:102360002DE9F041044600F0ADF906465CB10220CB
:1023700084F83500002584F834502068016821F085
:10238000010101600DE00120BDE8F08100F09AF943
:10239000801B052805D920206065032084F83500BE
:1023A000F2E720680068C007F0D122681168204871
:1023B0000140D4E901031843D4E9033633431843F9
:1023C00063691843A3691843E3691843236A1843F0
:1023D0000843616A042903D1D4E90B131943084364
:1023E000106020684069666A20F0070130460E439D
:1023F000012704280CD1A06A0643E06A40B12046B8
:10240000FEF7B8FE20B14020606584F83570BAE769
:10241000206846612046FEF799FE94F85C203F2133
:1024200091408160656584F835700020ACE700005C
:102430003F8010F02DE9F0410446866D90F834009D
:10244000002501280DD0012084F8340094F835705F
:102450000020012F07D084F8340002252846BDE86B
:10246000F0810220FBE7022784F835706065204682
:10247000FEF7AAFE94F85C103F208840B060206808
:10248000016841F016010160206C20B120680168EC
:1024900041F0080101602068016841F0010101601C
:1024A000DCE7000070B5044600F00CF90546601C3E
:1024B00002D004480078044400F004F9401BA04214
:1024C000FAD370BD640000202DE9F84FDFF8BCA1FD
:1024D0000022012503264FF00F090AF1040BAAF18F
:1024E000040E00BF0B6805FA02F42340A34270D12A
:1024F0000F7907F00307012F01D0022F16D187684B
:102500004FEA420806FA08FC27EA0C07D1F80CC08B
:102510000CFA08FC4CEA070CC0F808C04768A7434F
:102520000C79C4F3001494403C4344600C79E443B8
:10253000A4070AD0C4684FEA420C06FA0CF7BC4361
:102540008F6807FA0CF72743C7600C7904F003047F
:10255000022C12D1D40800EB840CDCF82040570781
:10256000FF0E09FA07F824EA0804D1F8108008FAE7
:1025700007F848EA0408CCF8208004684FEA420CC7
:1025800006FA0CF7BC430F7907F0030707FA0CF7BC
:10259000274307604C6814F4403F70D03C4C2768D8
:1025A00047F480472760246822F0030704F480443E
:1025B0000094384C07EB040CDCF8084897074FEA06
:1025C000177809FA08F7BC43334FB84202D1002705
:1025D00024E054E0314FB84201D101271EE0304FD2
:1025E000B84201D1022719E02E4FB84201D103278A
:1025F00014E02D4FB84201D104270FE02B4FB84211
:1026000001D105270AE02A4FB84201D1062705E08B
:10261000284FB84201D1072700E0082707FA08F73A
:102620002743CCF80878DAF800405746D1F804C0C0
:102630009C435FEACC2C00D51C433C60DBF8004097
:102640005F46D1F804C09C435FEA8C2C00D51C4344
:102650003C60DEF800407746D1F804C09C435FEA56
:102660008C3C00D51C433C60084F083F3C68D1F8C7
:1026700004C09C435FEACC3C00D51C433C60521C28
:10268000102AFFF42FAFBDE8F88F0000083C01408E
:102690004438024000300140000002400004024083
:1026A00000080240000C02400010024000140240EA
:1026B00000180240001C02400AB181617047090401
:1026C000FBE70000014880687047000064000020BC
:1026D00002488168027811448160704764000020DC
:1026E0000B4810B5016841F400710160016841F4C4
:1026F00080610160016841F480710160032000F095
:102700006FF80F2000F006F800F024F8002010BD4C
:10271000003C024070B50D4D04464FF47A712878A4
:10272000B1FBF0F00A490968B1FBF0F001F02CF8B8
:1027300048B9102C07D200222146501E00F030F874
:1027400000206C6070BD012070BD0000640000209E
:10275000700000200A4808B5016841F4804101601A
:10276000006800F4804000900548001F016841F0B7
:1027700080510160006800F08050009008BD0000AA
:1027800044380240002809DB00F01F02012191407B
:102790004009800000F1E020C0F8001170470000FF
:1027A000F0B40E4B1B680C46C3F30223C3F10705BC
:1027B000042D00D90425191D072901D2002300E0AA
:1027C000DB1E012606FA05F1491E214099409E4074
:1027D000761E16403143F0BC03F0E1BE0CED00E084
:1027E000064900F0070208684FF6FF03184040EA68
:1027F0000220034A10430860704700000CED00E01F
:102800000000FA0570470068416200207047F0B58B
:102810000368586A39B19C6A4FF4827600EB14441D
:1028200000204D1E0AE040EA024098620FE006EBED
:102830008007DF59401C04EB1744C0B2A842F6D30E
:1028400044EA02404FF4807202EB810158500020AC
:10285000F0BDD0F8E00402F0F8BD01EBC10200EBDE
:102860008202D0F8E004126A02F049BD01EBC10215
:1028700000EB8202D0F8E004D2F8602202F09BBDA7
:10288000D0F8E00402F0E3BD0A0601F00F0101EB0D
:10289000C10100EB810101D5143101E001F5157191
:1028A000006803F0C9BC70B504460B0601F00F00C8
:1028B00000EBC00104EB81014FF001024FF0000575
:1028C00002D54A75143103E081F8555201F51571AE
:1028D000087094F89404012808D084F8942420689F
:1028E00003F0C4F984F89454002070BD022070BD38
:1028F00070B5044601F00F002279904201D9012001
:1029000070BD0B0601F00F0101EBC10104EB810169
:102910004FF001024FF0000502D54A75143103E073
:1029200081F8555201F515718D70087094F8940472
:10293000012808D084F89424206803F009FB84F867
:102940009454002070BD022070BD01F00F0101EB16
:10295000C10100EB8100D0F8680270472DE9F04119
:1029600004460F0601F00F0000EBC00104EB8101EB
:102970004FF001064FF0000502D54E75143103E00B
:1029800081F8555201F51571C2F30A0208708A6088
:102990000B714A7802B14883022B00D14D7194F833
:1029A0009404012809D084F89464206803F0ACF8FA
:1029B000284684F89454BDE8F0810220FBE710B566
:1029C00001F00F0404EBC40100EB8101C1E998237D
:1029D0000023C1F8683281F8553281F85442837976
:1029E00001F51571012B00D1CA618279006803F0ED
:1029F00007FB002010BD70B504460D4601F00F0026
:102A00002179884201D9012070BD29064FF00006C6
:102A10004FF0010206D500EBC00104EB81014A75BD
:102A2000143107E005EBC50104EB810181F8556223
:102A300001F515718A70087094F89404012807D084
:102A400084F89424206803F0AFFA280702D007E046
:102A5000022070BDA17904F29C42206803F04CFA78
:102A600084F89464002070BD10B501F00F0404EBED
:102A7000C40100EB8101C1E9082300238B6201231B
:102A80004B7501F8144F8379012B00D1CA6182790B
:102A9000006803F0B5FA002010BD00002DE9FC5FCE
:102AA00005680446284603F063FC00287DD12068B1
:102AB00003F08AFC002878D0D5F80808C0F30D2070
:102AC000C4F8D404206803F07FFC800704D5206894
:102AD000416901F002014161206803F075FCC10603
:102AE00004F29C40009034D52068816921F01001E7
:102AF00081612F6A07F00F0000EBC00004EB800635
:102B0000C7F3434006F51576022802D0062811D0F7
:102B10001AE047F6F070074216D0C7F30A121746BC
:102B20002846F16803F054FCF0683844F06070699E
:102B3000384408E008222846009903F049FC7069EF
:102B4000C7F30A11084470612068816941F01001DF
:102B50008161206803F038FC00034FF0080B4FF050
:102B6000000A4FF001097CD50026206803F00BFC19
:102B7000074674E0F80770D0F1B2206803F01CFC3F
:102B80008046C00707D005EB4611C1F8089B3146C7
:102B9000204601F087FA5FEA087024D505EB46115C
:102BA000C1F808BB2068016C00E023E200EB46108E
:102BB0000191D0F8082BFB4B994205D9110403D59C
:102BC0004FF40041C0F8081B204600F0F6FAF54922
:102BD0000198884207D9A079012804D120680121F1
:102BE000009A03F089F95FEAC86004D505EB461145
:102BF0001020C1F8080B5FEA88701DD568690006CF
:102C000005D5D5F8040840F48061C5F8041806EB32
:102C1000C60004EB800090F8571200F515700129EA
:102C200005D180F803A0F1B2204600F0E9F905EBE8
:102C300046110220C1F8080B5FEA886004D505EB55
:102C400046102021C0F8081B5FEA884005D505EB37
:102C500046104FF40051C0F8081B7F08761C002F67
:102C600088D1206803F0B0FB40036ED5206803F0E4
:102C700083FB0746002666E0F80762D0F1B22068C1
:102C800003F088FB8046C00723D006F00F01D5F87B
:102C9000342809FA01F18A43C5F8342805EB4611B6
:102CA000C1F80899A07901280FD106EBC60004EB02
:102CB0008000D0E907211144016236B9606A20B969
:102CC00020680121009A03F017F9F1B22046FFF7BE
:102CD000C4FD5FEA087003D505EB4611C1F808B9D9
:102CE0005FEAC86004D505EB46111020C1F8080959
:102CF0005FEA486004D505EB46104021C0F808198A
:102D00005FEA887016D53146284603F006FB06EBCD
:102D1000C60004EB8000C17D1430012905D180F884
:102D200003A0F1B2204600F067F905EB461102203E
:102D3000C1F808095FEA086003D53146204601F072
:102D400017FA7F08761C002F96D1206803F03CFB11
:102D5000002811DAD5F8040820F00101C5F804189C
:102D600094F8CC0401282BD0204600F00BFA206800
:102D7000416901F000414161206803F025FB000535
:102D80000BD5D5F80808C00702D0204600F03EFA5F
:102D90002068416901F400614161206803F014FB7F
:102DA000C00467D5D5F8040820F00100C5F8040870
:102DB0001021206803F0B1FA00214FF67F3220E0A5
:102DC00084F8CCA400212046FFF71CFDCFE700BF0C
:102DD00005EB4110C0F80829D0F8003923F400139E
:102DE000C0F80039C0F8082BD0F8003B23F40013DA
:102DF000C0F8003BD0F8003B43F00063C0F8003B54
:102E0000491C20798842E3D8D5F81C0840F001110C
:102E1000C5F81C18E07B002828460DD0D0F884089F
:102E200040F00B01C5F88418D5F8440840F00B01B8
:102E30002846C5F844180DE0D0F8140842F22B01DA
:102E40000843C5F81408D5F8100840F00B012846CF
:102E5000C5F81018D0F8000820F4FE61C5F8001875
:102E6000A1792068009A03F047F82068416901F4CD
:102E700080514161206803F0A7FA800415D52068CD
:102E800002F082FE206803F066FAE07100F070FA4A
:102E90000146E279206803F0F9FA204600F05CF977
:102EA0002068416901F400514161206803F08CFA07
:102EB000000707D5204600F069F92068416901F054
:102EC00008014161206803F07FFA000616D5A86961
:102ED00020F08001A96101260DE000BF06EBC600CD
:102EE00004EB800090F85702012803D1F1B220468C
:102EF000FFF7CAFC761C2079B042EFD8206803F0B7
:102F000063FAC0021FD501264F4614E005EB4610B8
:102F1000D0F8000906EBC60104EB81010A7E012A04
:102F200008D1002806DACF75F0B240F080012046C3
:102F3000FFF7AAFC761C2079B042E7D820684169E7
:102F400001F480114161206803F03EFA800234D51B
:102F500001204A4629E000BF05EB4011D1F8001BD3
:102F600000EBC00304EB830393F85862012E1BD1DE
:102F7000002919DA94F8D464C1F3004106F001067F
:102F80008E4211D183F85722A96941F08003AB61C9
:102F90006969090608D4D5F8040840F40070C5F83A
:102FA000040805E00A30544F401C21798142D3D8EF
:102FB0002068416901F400114161206803F004FABE
:102FC000400007D52046FFF744FC2068416901F026
:102FD00080414161206803F0F7F940070AD5206875
:102FE0004568680702D52046FFF74AFC206841681B
:102FF00029434160BDE8FC9FD0F8E00402F079BAB3
:10300000D0F8E00402F089BAF8B5040005D094F8CD
:1030100095042668002510B106E00120F8BD84F86B
:103020009454204600F056F8032084F89504B6F135
:10303000A04F00D1A571206802F058FF207C8DF8C8
:10304000000094E80F0002F0ADFD0226B8BB00219D
:10305000206803F0DCF990BB002001270DE000BFE1
:1030600000EBC00104EB81014F750875C8850D7632
:10307000CD610D62401CC0B24D6221798142EFD812
:10308000002011E000EBC00104EB810181F85552F2
:1030900081F8540281F85852C1F85C52C1F860526C
:1030A000401CC0B2C1F8645221798142EAD8207C28
:1030B0008DF8000094E80F0002F05AFE10B184F879
:1030C0009564AAE7657484F89574206802F042FE5E
:1030D0000020F8BD10B586B0044614216846FDF7FF
:1030E00078FC2068B0F1A04F2FD119480021026868
:1030F00042F001020260006800F0010005904FF408
:10310000C05000900220CDE90101032003900A2065
:10311000049069460F48FFF7D7F90D48001D016874
:1031200041F0800101600A481430016841F4804197
:1031300001600068002200F48040059011464320A1
:10314000FFF72EFB4320FFF71DFB06B010BD00006C
:10315000303802400000024070B50446C0790125B5
:1031600070B1022801D0FEF7CBFF2946D4F8E00465
:1031700002F042FAD4F8E004BDE8704002F0F6B97B
:103180000025F2E7D0F8E00402F01FBAD0F8E0041E
:1031900002F025BA10B5044690F8940401280AD02C
:1031A000012084F894046174206803F05EF9002023
:1031B00084F8940410BD022010BDD0F8E02400F281
:1031C0009C41104602F024BA10B50446006894F8F9
:1031D0009414012909D0012184F89414C168490686
:1031E00009D5617B012902D005E0022010BD816B69
:1031F00041F480318163206803F06DF8206802F0AB
:103200009BFD002084F8940410BD000010B5044616
:10321000D0F8E00402F03EFA2068D0F8001E41F039
:103220000101C0F8001EE07A002804D002480168BD
:1032300041F00601016010BD10ED00E02DE9F047FE
:103240000E46050065D0DFF81481D8F80000F7B20B
:1032500000F00700B04207D288F80070D8F80000EC
:1032600000F00700B04254D128683D4C810712D5C8
:10327000400703D5206840F4E0502060287800071C
:1032800003D5206840F4604020602068A96820F0E1
:10329000F000084320602878C0072DD030496868C6
:1032A0000839012812D0022813D0032811D0096848
:1032B000890700292DDA216821F0030101432160EB
:1032C000FFF700FA814641F2883A0EE00968890367
:1032D000EFE709688901ECE7FFF7F4F9A0EB0901D2
:1032E000514502D90320BDE8F0872068696800F0E5
:1032F0000C00B0EB810FEFD1D8F80010404601F080
:103300000701B14207D90770006800F00700B0421A
:1033100001D00120E7E72878400705D52068E96853
:1033200020F4E050084320602878000706D5206884
:10333000296920F4604040EAC100206000F03EF8B6
:103340002168084AC1F30311515CC840064908606E
:1033500006480068FFF7DEF90020C4E7003C0240A1
:1033600008380240C2660008700000206800002093
:1033700001480068704700007000002004480549BB
:1033800000680968044AC1F38221515CC840704753
:103390007000002008380240D26600080448054941
:1033A00000680968044AC1F34231515CC840704763
:1033B0007000002008380240D2660008154810B599
:1033C000006810F00C02144813D04110042A0FD0EA
:1033D000082A0ED10F4C241F2268236802F03F02F6
:1033E0005B0207D52068C0F38810A0FB010106E04E
:1033F000084610BD2168C1F38811A1FB000100231C
:10340000FCF766FF2168C1F30141491C4900B0FB8C
:10341000F1F010BD083802400024F4002DE9F84F07
:1034200004006ED02078DFF84C93C007A9F10405A2
:103430004AD009F104000168C1F38101012908D0D3
:103440000068C0F3810002280AD1D9F800004002C8
:1034500006D52868800337D560680028E1D033E0BE
:103460006068B0F5803F10D0B0F5A02F286810D06C
:1034700020F480302860286820F48020286060686C
:10348000A8B1FFF71FF906460DE0286840F4803028
:10349000F4E740F480202860F7E700BFFFF712F957
:1034A000801B642873D828688003F7D50CE0FFF7E9
:1034B00009F9064605E000BFFFF704F9801B642800
:1034C000F0D828688003F7D42078DFF8AC82800732
:1034D0004FF0000A3ED5A748001D016811F00C0FFF
:1034E00008D00068C0F3810002280BD1D9F8000091
:1034F000400207D42868800716D5E068012800D16B
:1035000012E033E1E068B8B10120C8F80000FFF72D
:10351000D9F8064605E000BFFFF7D4F8801B022863
:10352000C0D828688007F7D52868216920F0F800FE
:1035300040EAC10028600DE0C8F800A0FFF7C2F81B
:10354000064604E0FFF7BEF8801B02281FD8286853
:103550008007F7D42078000722D5864F8748616915
:10356000703771B101210160FFF7ACF8064604E045
:10357000FFF7A8F8801B022809D838688007F7D51C
:103580000EE0C0F800A0FFF79DF8064605E082E0D7
:10359000FFF798F8801B02287DD838688007F7D499
:1035A0002078400768D5DFF8CCB100270BF13C0B41
:1035B000DBF80000C0000BD4DBF8001041F08051B4
:1035C000CBF80010DBF80000012700F080500090DD
:1035D0006B4E3068C00510D4306840F480703060A5
:1035E000FFF770F8009005E0FFF76CF80099401ABB
:1035F000022850D83068C005F6D55E4EA0686C36FB
:1036000001280FD00528306810D020F0010030606C
:10361000306820F004003060A068B8B1FFF752F8BD
:1036200000900FE0306840F00100F4E740F0040043
:103630003060F7E7FFF746F80099411A41F2883009
:10364000814266D830688007F4D50EE0FFF73AF87B
:10365000009007E0FFF736F80099411A41F28830F0
:10366000814256D830688007F4D42FB1DBF80010BF
:1036700021F08051CBF80010A069C8B33D49091D65
:103680000968C1F3810102294AD00228504607D0B7
:10369000C8F8600000E03CE0FFF714F804463BE0A7
:1036A0004746C8F86000FFF70DF8064605E000BF82
:1036B000FFF708F8801B02282BD828688001F7D470
:1036C000D4E907010843A16A2E4A490802EB0141E7
:1036D000626A41EA8211084394F82C1040EA0161C1
:1036E000C9F8001001203866FEF7ECFF044606E03A
:1036F0003EE000BFFEF7E6FF001B022809D828685D
:103700008001F7D534E000BFFEF7DCFF001B022884
:1037100002D90320BDE8F88F28688001F4D427E09F
:103720000128F7D0D9F80000E26900F48001914245
:103730001CD1226A00F03F01914217D147F6C071B7
:10374000626A0140B1EB821F10D1A26A4FF0FF33D1
:1037500000F4403103EB5202B1EB024F06D194F872
:103760002C1000F07060B0EB016F01D00120D1E7A8
:103770000020CFE70438024000004742800E474255
:10378000007000400000FFFF10B5401EB0F1807FC8
:1037900001D3012010BD4FF0E02460610F216017BC
:1037A00002F0FDFE0020A06107202061002010BD76
:1037B000704770B5044620680C3050E8001F21F4B3
:1037C000907140E80012002AF5D12068143050E8CA
:1037D000001F21F0010140E80012002AF5D1206B02
:1037E000012809D120680C3050E8001F21F0100199
:1037F00040E80012002AF5D1206840694FF000052A
:10380000400615D52068143050E8001F21F0400113
:1038100040E80012002AF5D1E06B48B10565E06B85
:10382000FEF770FC20B1E06BFEF7C7FC202806D045
:10383000E585202084F842002563002070BD10201B
:103840006064032070BD000010B50446094884423E
:103850000FD12046FFF7ADFF80220749204600F038
:1038600049FA08B1FEF74CFC2068C16841F010012C
:10387000C16010BD480100200C2C0020F8B5016883
:1038800004460868CA684B6910F00F0F4FF0000536
:103890005AD003F0010602F49077374365D0C10790
:1038A00005D0D10503D5616C41F001016164410788
:1038B00005D5D90703D0616C41F00201616481072D
:1038C00005D5D90703D0616C41F00401616401079B
:1038D00007D502F02001314303D0616C41F00801AB
:1038E0006164616C00293BD0800604D5900602D546
:1038F000204600F036FF20684069616CC0F38010FC
:1039000001F00801014320462BD000F0F5FE2068AD
:103910004069400621D52068143050E8001F21F08E
:10392000400140E80012002AF5D1E06BA8B17249CD
:103930000165E06BFEF72FFC002811D0E06B016DF4
:1039400001B0BDE8F040084783060ED593060CD5BC
:103950002046BDE8F84000F004BF2046FFF774FFA2
:10396000F8BDFFF771FF6564F8BD266B2023012EBB
:103970007ED1C6067CD5D6067AD508684868009000
:1039800048694FF0020640064DD5E26B106840686A
:103990004FF480770004000C3AD0A18D814237D9D2
:1039A000E085D069B8422DD020680C3050E8001F67
:1039B00021F4807140E80012002AF5D1206814300B
:1039C00050E8001F21F0010140E80012002AF5D163
:1039D0002068143050E8001F21F0400140E8001238
:1039E000002AF5D184F84230256320680C3050E875
:1039F000001F21F0100140E80012002AF5D1E06B11
:103A0000FEF780FB6663A08DE18D401A81B206E06F
:103A1000A18D8142A8D1D069B842A5D16663204664
:103A2000FFF7C6FEF8BDA08DE18D401A81B2E08D92
:103A30000028F7D00029F5D020680C3050E8002F7E
:103A400022F4907240E80027002FF5D1206814304E
:103A500050E8002F22F0010240E80027002FF5D1A6
:103A600084F84230256320680C3050E8002F00E0D5
:103A700006E022F0100240E80023002BF3D1CDE74E
:103A800005062BD5150629D594F841002128C9D162
:103A9000A068B0F5805F01D12069B0B1206A411CF7
:103AA0002162216800784860E08C401E0004000C10
:103AB000E084B7D12068C16821F08001C16020682E
:103AC000C16841F04001C160F8BD206A0088C0F3C0
:103AD00008004860206A801C2062E5E74006F3D5B4
:103AE0005006F1D5CA68204622F04002CA6084F828
:103AF000413000F0AFF9F8BDB145000870B50400E1
:103B000004D094F84100002510B106E0012070BDFA
:103B100084F84050204600F023F8242084F8410027
:103B20002068C16821F40051C160204600F07AFE8F
:103B30002068016921F4904101612068416921F008
:103B40002A0141612068C16841F40051C160656487
:103B5000202084F8410084F842006563002070BD95
:103B60002DE9F04786B0044614216846FCF731FF82
:103B7000DFF85CC10221266856480322072300258E
:103B80008F064FF0400A4FF48069664552D1514E7E
:103B90001436D6F800C04CF0100CC6F800C03668D9
:103BA00006F010060596066846F0010606600068F5
:103BB00000F00100059050028DE823006946464858
:103BC000CDE90323FEF780FC454E4448C846C6E9CC
:103BD00003597561B561F5613562756286E88104E6
:103BE0003046FEF7BDFB08B1FEF78AFAA663B46360
:103BF0003B4E3A48603678383060C6E90175C6E910
:103C0000035880157561C6E9065035623046756205
:103C1000FEF7A6FB08B1FEF773FAE6630022114631
:103C20002520B463FEF7BCFD2520FEF7ABFD06B0F2
:103C3000BDE8F087DFF8ACC06645F8D1254E1036F8
:103C4000D6F800C04CF4802CC6F800C0366806F4E4
:103C500080260596066846F002060660006800F0B9
:103C6000020005904FF440608DE8230069461E482D
:103C7000CDE90323FEF728FC194E1C48C036B84690
:103C80003060C6E90175C6E903597561B561F56132
:103C900035624F4630467562FEF762FB08B1FEF7AB
:103CA0002FFAE663B463124E1048C6E903577561F4
:103CB000B561F56135623030756286E801053046E0
:103CC000FEF74EFB08B1FEF71BFAA663B463AEE73E
:103CD000001001403038024000000240B864024049
:103CE000D801002000480040000402402860024043
:103CF000F802002090F84230202B01D002207047BB
:103D000021B11AB10023036300F012BE01207047F5
:103D10000249884201D100F0FFBB704748010020F2
:103D20000249884201D100F0F7BB704748010020EA
:103D30002DE9F843044690F84100984616460D4692
:103D4000202802D00220BDE8F88385B17EB1002092
:103D50006064212084F84100FEF7B4FCA68481460B
:103D6000E684A0682027B0F5805F02D003E0012040
:103D7000E9E7206910B12E4600250EE000260CE090
:103D80008021204600F024FEA8B9C6B116F8010B28
:103D900021684860E08C401EE084E08C4B464FF088
:103DA0000002CDF800800028EAD14FF04001204603
:103DB00000F00EFE40B184F841700320C3E735F8EF
:103DC000020BC0F30800E3E784F841700020BAE773
:103DD00070B5044690F84100202801D0022070BD43
:103DE00001B3FAB12162A284E2840020606421233D
:103DF00084F84130A56B144BEB63A56B134B2B641C
:103E0000A56B134BEB64A36B186520681346A56B79
:103E1000021D2846FEF70EFB30B110206064202002
:103E200084F84100012070BD21686FF040000860F7
:103E30002068143050E8001F41F0800140E8001273
:103E4000002AF5D1002070BDAD460008EF460008FD
:103E5000BF45000870B50E49884218D10D48C169A8
:103E6000491CC1610C4C002594F8041204F2052091
:103E70000D5494F8040280F00100211891F8051205
:103E800019B100F075FB002801D084F8075270BD0D
:103E90004801002014010020042A00207047FEE79A
:103EA000F0B500230A24302537261F4611E000BF55
:103EB000B4EB107F02D905EB107C01E006EB107C1F
:103EC00001F813C001EB430C00015B1C8CF801707E
:103ED000DBB29342ECD3F0BD194808B5016841F458
:103EE00080010160016801F480010091016841F4E2
:103EF000001101600068002200F4001000901146DB
:103F00000C20FEF74DFC0C20FEF73CFC0022114675
:103F10000E20FEF745FC0E20FEF734FC0022114671
:103F20003A20FEF73DFC3A20FEF72CFC0022114619
:103F30004620FEF735FCBDE808404620FEF722BCCF
:103F40003038024070B586B014216846FCF741FD58
:103F50001D480025016841F080010160016801F001
:103F600080010591016841F004010160016801F0E0
:103F700004010591016841F002010160016801F04E
:103F800002010591016841F00101016000680F4ED6
:103F900000F001000590002201213046FEF78CFB65
:103FA00001240094694630460194CDE90245FEF7AC
:103FB0008BFA0220CDE90005694602943046FEF7EF
:103FC00083FA06B070BD000030380240000802409D
:103FD0000C4810B50A4901604FF4E13141600021FD
:103FE00081600C22C160C0E904128161C161FFF7E8
:103FF00085FD002803D0BDE81040FEF781B810BD54
:1040000000100140480100200C4810B50A49016029
:104010004FF4E1314160002181600C22C160C0E9B0
:1040200004128161C161FFF769FD002803D0BDE87A
:104030001040FEF765B810BD004800409001002018
:1040400010B500220F49104801F034F908B1FEF70D
:1040500057F80E490C4801F049FB08B1FEF750F83B
:104060000B49094800F0C6FE08B1FEF749F80648BA
:1040700001F0C0FB002803D0BDE81040FEF740B8B7
:1040800010BD00000000002058030020CC000020DC
:1040900050000020FEE7FEE70148FEF7FFBC0000ED
:1040A000541A00202DE9F04103680D4604461E6CA9
:1040B00003EB4511D1F8080B94F806E04FF40047E4
:1040C0004FF0200C04F29C42BEF1010F09D0DFF842
:1040D00098E0764539D1020432D500BFC1F8087B9B
:1040E0003FE0224B5FEA007E04D59E4239D90004AE
:1040F000F4D436E05FEA806E02D5C1F808CB30E038
:1041000010F0280F2DD19E4201D90004E6D405EB12
:10411000C50004EB8000D1F8101BD0F87432C1F355
:104120001201591AC0F8681200F51570ADB903698B
:104130001BB1C2681144C1600FE0012120680AE090
:1041400080060AD5C1F808CB07E035B9D4F8640277
:1041500018B90021184601F0CFFEE9B22046FEF75B
:1041600085FB0020BDE8F0810A31544F0A30544FDE
:104170002DE9F84F0E4601EBC60100EB81048146A4
:104180000568D4E909101434884202D90120BDE839
:10419000F88F081AA168814200D20846C01C87081F
:1041A00005EB46181BE000BFA0EB010AA0685045D4
:1041B00000D282460AF10300870899F806000090B1
:1041C0001FFA8AF3F2B22846E16802F0D3F9E168F7
:1041D00001EB0A00E060616901EB0A006061D8F858
:1041E000180980B2B84205D3D4E90401814201D252
:1041F0000028D9D1D4E90401884208D806F00F017B
:1042000001208840D5F834188143C5F834180020BF
:10421000BDE7704770470178407841EA0020704759
:10422000FEF756BA30B593B030216846FCF7D1FBA3
:1042300014210CA8FCF7CDFB1D480025016841F0B6
:1042400080510160006800F08050119019480168A9
:1042500041F4804101600068022400F48040119024
:1042600001200090000401908001CDE90640042067
:104270000890A820CDE9090407200B906846FFF7B5
:10428000CDF808B172B6FEE70CA90F2081E8310025
:104290004FF4A0500F904FF48050109005210CA8BF
:1042A000FEF7CCFF002801D072B6FEE713B030BD98
:1042B00040380240007000400248016841F470013B
:1042C0000160704788ED00E010B580211648FCF7CA
:1042D0005EFB15484FF400718030FCF758FB4FF43B
:1042E00002711248FCF753FB11480021C1620163BF
:1042F00081620180418081808160C1600161416192
:104300008161C16101624162C18080220649094820
:10431000FFF7F0FC08B1FDF7F3FE06480068C1683E
:1043200041F01001C16010BD0C2C0020042A0020B7
:10433000140100204801002070B5002837D0EFF3A9
:10434000108272B61A490C884B888D680560CD685A
:1043500045600D6985604D69C5608D690561CD69F0
:1043600045610D6A85614D6AC561CD884584114DF1
:1043700095F8076280F8246095F8056280F825605A
:1043800095F8065280F82650CD6AC0F827500D6B7C
:10439000C0F82B50896AC0F82F109C42A4EB03018F
:1043A00001D201F500710184002A00D162B670BD0E
:1043B00014010020042A0020084882B00068016827
:1043C000C943C90608D4C168C90605D50168406853
:1043D000009002B000F0A0B802B070474801002081
:1043E0002DE9F35F2E4D00980E464FF0000918B1ED
:1043F00016B1B6F5807F05D92869401C28610120D7
:10440000BDE8FC9FEFF3108472B6264890F80512C1
:1044100039B190F8061231B1E868401CE8606CB31D
:104420002DE0002700E001278246804600EB0720B0
:1044300032460099FCF766FA08EB4700A0F80062E4
:1044400008EB07000121804680F80512A868401C8F
:10445000A860EE804FF0000BC5F82CB0C5F830B066
:10446000082E00D908260E4832462C300099FCF759
:1044700049FA9AF80702554618B10CE062B60220D4
:10448000BEE7384600F074F85FEA000903D088F808
:1044900005B285F807B204B962B64846B0E7000035
:1044A00014010020042A002070B50D4606460024A1
:1044B00004E0305D00F00CF8641CA4B2AC42F8D308
:1044C0000248016A2944016270BD00001401002005
:1044D0000F4910B50A884B88521CC2F308029A4251
:1044E00007D14B885B1CC3F308034B804B6A5B1CF2
:1044F0004B62084B0C8818550A80054928314A78C8
:104500000A708A784A70CA788A70C87010BD000034
:10451000140100208C2C002070B51248C06B0028BC
:104520001FD000684068104CC0F1800085B2A088A0
:10453000854216D0A1880D488D42A18804D9691AF8
:10454000A28889B2104409E0C1F18001A28889B231
:104550001044FFF7A9FF1DB129460448FFF7A4FF47
:10456000A58070BD48010020140100200C2C002003
:1045700010B50C4C84F8040204EB4001B1F80022A1
:1045800004EB00210848FFF723FC084918B18A69A9
:10459000521C8A6110BD012284F807224A69521C0C
:1045A0004A6110BD042A00204801002014010020A7
:1045B00010B5806B0021C185FFF746F910BD70B5BD
:1045C000846B2068406994F84110C0F3C010002546
:1045D000212904D118B1E584204600F0B4F8206800
:1045E000406994F84210C0F38010222904D118B118
:1045F000E585204600F080F8606C40F010006064B3
:104600002046FFF721F970BD10B50146806B09689F
:1046100009684FF00002C9052ED4C28501680C312B
:1046200051E8003F23F4807341E80034002CF5D1B9
:104630000168143151E8003F23F0010341E80034E0
:10464000002CF5D10168143151E8003F23F04003FC
:1046500041E80034002CF5D1202180F84210016B94
:10466000012909D101680C3151E8003F23F0100302
:1046700041E80034002CF5D14263016B012902D0DE
:10468000FFF746FB10BD818DFFF792F810BD10B506
:10469000806B01214163016B012902D0FFF740FBD0
:1046A00010BD818D4908FFF783F810BD10B5014694
:1046B000806B09680968C90516D40021C1840168A6
:1046C000143151E8002F22F0800241E80023002B32
:1046D000F5D101680C3151E8002F42F0400241E869
:1046E0000023002BF5D110BDFFF7B4FB10BD10B5B2
:1046F000806BFFF7D3FB10BD01680C3151E8002F30
:1047000022F4907241E80023002BF5D101681431A6
:1047100051E8002F22F0010241E80023002BF5D1DF
:10472000016B012909D101680C3151E8002F22F0F9
:10473000100241E80023002BF5D1202180F842101F
:1047400000210163704701680C3151E8002F22F00D
:10475000C00241E80023002BF5D1202180F8411050
:10476000704708B590F84210222901D0022008BDF8
:1047700082684FF480539A4201D1016921B1816A64
:104780009A421BD04AB10AE00268816A5268C2F3B9
:1047900008020A80816A891C08E0026972B1026815
:1047A000526802F07F020A70816A491C8162C18DE1
:1047B000491E0904090CC18503D01BE00268526838
:1047C000F1E70168CA6822F02002CA600168CA687D
:1047D00022F48072CA6001684A6922F001024A61CB
:1047E000202180F8421000214163026B012A03D08E
:1047F000FFF78EFA002008BD016301680C3151E813
:10480000002F22F0100241E80023002BF5D10168AF
:104810000A68D20602D50A6849680091818DFEF7C0
:10482000C7FFE7E770B5044600680169E26821F454
:104830004051114301612169A068E269084361693F
:10484000114308432168CA6849F20C639A43024342
:10485000CA6020684169A26921F440711143416135
:1048600031492068884202D03049884202D1FEF79F
:1048700095FD01E0FEF782FDE26900231921642520
:104880003226B2F5004F626828D0A0FB0101930FD9
:104890009200FBF71DFD0146B0FBF5F06FF018022A
:1048A000504301EB800006EB0010B0FBF5F000F088
:1048B000F002B1FBF5F002EB0012B1FBF5F06FF086
:1048C0001803584301EB800006EB0010B0FBF5F035
:1048D00000F00F0021681044886070BDA0FB01014A
:1048E00092185B41FBF7F4FC0146B0FBF5F00201C6
:1048F000B1FBF5F06FF01803584301EB800006EBB5
:10490000C000B0FBF5F000F0F80002EB4002B1FB94
:10491000F5F0584301EB800006EBC000B0FBF5F06A
:1049200000F00700D6E7000000100140001401402D
:1049300038B58162044682850020134660642222D5
:1049400084F84220E56B1F4AEA63E56B1E4A2A643D
:10495000E56B1E4AEA64E26B10650A462168E06B6B
:10496000091DFDF767FD30B110206064202084F838
:104970004200012038BD206801684068009020692D
:1049800048B120680C3050E8001F41F4807140E8C5
:104990000012002AF5D12068143050E8001F41F0C1
:1049A000010140E80012002AF5D12068143050E8D7
:1049B000001F41F0400140E80012002AF5D100201C
:1049C00038BD0000094600088F460008BF450008B2
:1049D0002DE9F843984617460D460446089E24E004
:1049E000701C22D0FDF76EFEA0EB0800B0421AD872
:1049F000CEB12068C168490717D5802D15D0402D4C
:104A000013D00168C94309070FD401680025406825
:104A100000902046FFF770FE0820606484F8405044
:104A20000120BDE8F8830320FBE72068006835EA31
:104A3000000004D00020B842D2D00020F1E70120CD
:104A4000F9E7000010B5FFF7B7FCBDE810400148DA
:104A5000FEF714BF480100202DE9F0410C46D0F8C4
:104A6000D412D0F8C82200EB8101D1F8C01229B3CA
:104A700004F00F0606EB860300EB830500276B6945
:104A80004BB106EBC60602EB8602D269B3FBF2F627
:104A900002FB1632A2B1C1F81472D0F8D42200EB96
:104AA0008200D0F8C40203692BB1D1F80802224673
:104AB00001F5047198470020BDE8F0810320FBE771
:104AC00000231A4621466F6100F0F1FDF3E770B54F
:104AD0000546D0F8D40205EB8000D0F8C04294B16E
:104AE000284600F0C3FCC4F80C02D5F8D412D4F860
:104AF000040205EB8101D1F8C412CA6804F5037100
:104B00009047002070BD032070BD000070B5234D9C
:104B10000446297800F0EAFB2878002600F00F0010
:104B200000EB800004EB800080F823606978204669
:104B300000F0DCFB687800F00F0000EB800004EB75
:104B4000800080F86361A978204600F0CFFBA87848
:104B500000F00F0000EB800004EB800080F8236081
:104B6000C661D4F8D40204EB8000D0F8C01299B129
:104B7000D0F8C40240688047D4F8D40204EB800027
:104B8000D0F8C00200F0BAFFD4F8D40204EB8000E1
:104B9000C0F8C062C4F8BC62002070BD780000207C
:104BA00010B5D0F8D41200EB8100D0F8C04284B127
:104BB000D0F8C41259B194F80002FF2807D08B68CE
:104BC00094F8012221469847FF2084F80002002033
:104BD00010BD032010BD00000A210180004870476D
:104BE0007C00002070B5064682210C4800F001FBD5
:104BF00005460121094800F0FCFA044681210748D6
:104C000000F0F7FA0DB11021A971402104B1A18083
:104C100000B1818043203080004870BD88000020B2
:104C200070B5064682210D4800F0E3FA05460121E1
:104C30000A4800F0DEFA04468121084800F0D9FA5B
:104C40000DB11021A9714FF4007104B1A18000B120
:104C5000818043203080014870BD00008800002022
:104C600070B5064682210C4800F0C3FA05460121C2
:104C7000094800F0BEFA04468121074800F0B9FA5D
:104C80000DB11021A971402104B1A18000B1818032
:104C900043203080004870BD880000202DE9F04797
:104CA00004464FF40775284600F02AFF06004FF02F
:104CB000000865D02946FBF78CFED4F8D4023E4D9F
:104CC00004EB80004FF01009C0F8C062C4F8BC6269
:104CD000207C4FF4007A0127E8B340230222297890
:104CE000204600F02EFC2878402300F00F0000EB57
:104CF000800004EB800080F823700222697820464F
:104D000000F01FFC6878082300F00F0000EB800023
:104D100004EB8000032280F86371A978204601F03B
:104D20000F0101EB810104EB8101C1F81C90A9780E
:104D300000F007FCA87800F00F0000EB800004EB07
:104D4000800080F82370C6F80482D4F8D402474665
:104D500004EB800000E01BE0D0F8C40206F5017609
:104D6000006880473761776132687AB1207C00B390
:104D700040236978204600F0F0FB0020BDE8F08772
:104D8000D4F8D41204EB8101C1F8C0820220F5E707
:104D9000534602222978204600F0D3FB2878534658
:104DA00000F00F0000EB800004EB800080F823701F
:104DB000A3E75346DDE700007800002010B5D0F8E7
:104DC000D41200EB8101D1F8C01259B1027C084C19
:104DD000002AD1F8042207D04023617800F0BDFBFF
:104DE000002010BD032010BD4FF40073F5E7000054
:104DF0007800002039B1D0F8D42200EB8200C0F84E
:104E0000C4120020704703207047D0F8D42200EB72
:104E10008200D0F8C00218B1C0F804120020704718
:104E200003207047D0F8D43200EB8300D0F8C002E2
:104E300028B1C0F81022C0F80812002070470320E3
:104E400070472DE9FC410646D0F8D4020C4606EB2B
:104E500080000021D0F8C0728DF80010ADF8041069
:104E60000D4637B1217811F060022FD0202A4BD1A6
:104E700002E00320BDE8FC81E288F2B109060DD50D
:104E8000D0F8C40263783946D0F808C01846E04725
:104E9000E288072A00D9072239462DE0607887F892
:104EA0000002E088402800D34020C2B287F80122E7
:104EB0003946304600F081F82BE0D0F8C402637820
:104EC0000022866821461846B04722E0607830B15B
:104ED00001281ED00A2809D00B2815D110E096F819
:104EE0009C02032810D1022201A905E096F89C0239
:104EF000032809D101226946304600F07AF808E01B
:104F000096F89C02032804D02146304600F04AF867
:104F100003252846AEE7000010B5D0F8D41200EB08
:104F20008101D1F8C02201211AB1D2F8143213B193
:104F300016E0032010BD0121C2F814120949D2F86D
:104F40001032097801F00F0404EB840400EB8404B0
:104F50006361D2F81032D2F8082200F0A8FB0021D9
:104F6000084610BD7800002010B5D0F8B822002403
:104F70005268904700B10324204610BD00207047BE
:104F800000207047134610B50A46002100F0E5FAEC
:104F9000002010BD134610B50A46002100F087FB23
:104FA000002010BD10B50446802100F061FB2046B2
:104FB000BDE81040002100F05BBB10B50323C0F832
:104FC0009432C0F85421C0F858211346C0F8641137
:104FD0000A46002100F0C1FA002010BD10B50521DD
:104FE000C0F8941200231A46194600F0B6FA0020C1
:104FF00010BD10B50223C0F894324261826113469D
:1050000041620A46002100F052FB002010BD10B59D
:105010000421C0F8941200231A46194600F047FBF9
:10502000002010BD10B50A46024903A000F00FF998
:10503000004810BD3406002043444320436F6E6691
:105040006967000012200880004870472000002097
:1050500010B50A46024903A000F0F9F8004810BD57
:105060003406002043444320496E746572666163D0
:105070006500000004200880004870471C000020E4
:1050800010B50A46024903A000F0E1F8004810BD3F
:105090003406002053544D6963726F656C65637408
:1050A000726F6E696373000010B50A46024903A06F
:1050B00000F0CDF8004810BD3406002053544D33A5
:1050C00032205669727475616C20436F6D506F7237
:1050D0007400000010B51A2008800A480168001DFD
:1050E0000468001D0068081809D008220649FEF768
:1050F000D7FE0549042210312046FEF7D1FE0248B2
:10510000801E10BD107AFF1F36000020F8B504463F
:105110000020ADF8000048880D46010A08295FD23A
:10512000DFE801F05E0409175E5E3C45D4F8B41276
:10513000207C0A6819E0207C02260028D4F8B802F6
:1051400005D0C16A684688470146467039E0816AE1
:10515000F8E7C0B2062843D2DFE800F0030A1014D3
:10516000181CD4F8B402426805E0694690471CE078
:10517000D4F8B402826892B3207CF6E7D4F8B40283
:10518000C268F8E7D4F8B4020269F4E7D4F8B402CC
:105190004269F0E7D4F8B4028269ECE7207CF0B908
:1051A000D4F8B802416B68468847014609E0207C84
:1051B000A8B9D4F8B802016B6846884701460720B1
:1051C0004870EA888AB1BDF8000040B1824200D937
:1051D0000246ADF800202046FFF70BFFF8BDFFE7C1
:1051E00029462046FFF7DEFEF8E72046FFF70FFFCF
:1051F000F4E778B50E4642880178002504468A42D5
:1052000012D9ADF800100AE0694600F019F84178AB
:10521000052904D181780546B14205D00025618871
:10522000BDF800209142EFD8284678BD0146002005
:1052300002E0401CC0B2491C0A78002AF9D170472C
:105240000A8803781A440A8001780844704770B5C8
:1052500016460D46002820D00446FFF7E7FF02213E
:1052600001EB40014FF40070814204D82046FFF763
:10527000DDFF4000801C308030782870032068708B
:105280000220002206E02954401CC0B22A54401CCF
:10529000C0B2641C21780029F5D170BD01004FF027
:1052A000000004D0012901D0022901D00320704759
:1052B0000120704778B10023C0F8B832C0F8C4327A
:1052C000C0F8D03209B1C0F8B412012180F89C12A4
:1052D000027000F0CFB80320704710B5D0F8C802B4
:1052E000FDF706FBBDE81040FFF7D8BF10B5D0F8BA
:1052F000C802FDF7D8FABDE81040FFF7CFBF70B580
:105300000446002521B194F89C02032846D050E0C1
:10531000D4F8941204F11400022939D18189426829
:105320008A420AD9511A4160828901691144016196
:1053300042682046FFF72EFE0FE0914214D100682C
:10534000884211D3D4F8981288420DD20022114617
:105350002046FFF71FFEC4F8985200231A4619464C
:10536000204600F0FAF813E094F89C02032808D1D4
:10537000D4F8B802C16821B1C4F8D452C16820463B
:1053800088478021204600F073F92046FFF726FE6B
:1053900094F8A00268B184F8A0520AE0D4F8B802E8
:1053A000426932B1C4F8D45242692046904700287D
:1053B00000D1002070BD10B50446002221B194F840
:1053C0009C02032834D03EE0D4F8941204F5AA706D
:1053D000032938D1818943688B420ED9591A41601B
:1053E000828901691144016142688089824200D842
:1053F00002462046FFF7C6FD25E094F8AA0210F009
:105400001F0003D0012802D0022800D0002294F807
:105410009C02032808D1D4F8B802016921B1C4F86C
:10542000D4220169204688472046FFF7F0FD0AE0B4
:10543000D4F8B802836933B1C4F8D4228269204613
:105440009047002800D1002010BD0020704710B503
:105450000024012180F89C12D0F8B82222B15268B1
:105460000179904700B10324204610BDD0F8C8024E
:10547000FDF76BBA10B5017839BB15490222C1F8A6
:10548000E004C0F8C8124FF0A04008600420087182
:10549000CA71002088714A728872C8720873887352
:1054A000C8730846FDF7B0FD08B1FCF729FE80215E
:1054B0000748FDF7A8F9402200210548FDF7A7F9A4
:1054C000802201210248FDF7A2F9002010BD000052
:1054D000541A00200A0601F07F01D0F8C80201EB3F
:1054E000C10100EB810001D5807D704790F8560224
:1054F000704710B5D0F8D42200EB8202D2F8B8225F
:1055000022B190F89C32032B02D004E0032010BD9E
:10551000126A02B19047002010BD10B5D0F8D42215
:1055200000EB8202D2F8B82222B190F89C32032B11
:1055300002D004E0032010BD526A02B1904700205F
:1055400010BD10B51C461346D0F8C8022246FDF720
:1055500005FABDE81040FFF7A1BE10B5D0F8C802AB
:10556000FDF72DFABDE81040FFF798BE2DE9F04198
:1055700000260125044680F89C52C4F894626660B7
:10558000C4F8A46280F8A062D0F8B80230B14268D2
:1055900022B100212046904700B10326002240237B
:1055A00011462046FFF7CDFF402784F86351A4F849
:1055B00060713B46002280212046FFF7C2FF84F83D
:1055C000235027843046BDE8F08190F89C120429CE
:1055D00003D190F89D1280F89C120020704710B5FE
:1055E00090F89C12032905D1D0F8B81211B1C969FD
:1055F00001B18847002010BD01740020704710B52C
:10560000D0F8C802FDF7C6FDBDE81040FFF746BE62
:1056100070B5044600F2AA20054600F051F80120BA
:10562000C4F89402B4F8B002C4F8980294F8AA023C
:1056300010F01F010AD001290ED0022912D000F06B
:1056400080012046BDE8704000F012B8294620468F
:10565000BDE8704000F0D0B829462046BDE8704053
:1056600000F013BA29462046BDE8704000F05AB950
:1056700010B5D0F8C802FDF7BEF9BDE81040FFF73D
:105680000DBE10B5D0F8C802FDF79EFDBDE8104074
:10569000FFF704BE90F89C12042903D090F89C12E6
:1056A00080F89D12042180F89C120020704710B5EC
:1056B000D0F8C802FDF7D8F9BDE81040FFF7EEBDFD
:1056C00070B5054611F8010B2870087868704C1CFD
:1056D0002046FEF7A0FD6880A41C2046FEF79BFD37
:1056E000A880A01CFEF797FDE88070BD38B5044681
:1056F0000020ADF80000A1B1C4F8B812D4F8D4026B
:1057000004EB8000D0F8B802C16A19B16846884736
:10571000C4F8D002D4F8D802401CC4F8D802002043
:1057200038BD032038BD02460020D2F8B832002B25
:1057300002D01B6810461847704700002DE9F04161
:1057400088462B4E8978002504463170012906D9F8
:1057500041462046FFF726FC0320BDE8F08194F87F
:105760009C02022702280CD003281DD04146204667
:10577000FFF718FC31782046FFF7F6FB0325284693
:10578000EBE789B320466160FFF7CDFF050004D049
:1057900041462046FFF706FC1DE02046FFF737FC98
:1057A000032084F89C02EAE7C1B1606888421BD0FC
:1057B000C1B22046FFF7D8FB317820466160FFF781
:1057C000B2FF050010D041462046FFF7EBFB2179E0
:1057D0002046FFF7C9FB84F89C72D0E784F89C72DE
:1057E00020466160FFF7C0FB2046FFF710FCC6E7CC
:1057F00074000020FFF745BF2DE9F0410A7800252D
:1058000012F060020CD0202A01D0402A7DD1D0F8BD
:10581000D42200EB8202D2F8B8229268904731E09D
:105820004B78002201260A2B6FD2DFE803F0416695
:105830006E586E08056E2D29FFF768FC67E0044678
:105840008888D8B9C888C8B94888802816D200F096
:105850007F0794F89C02032810D084F89E72394682
:105860002046FFF7CCFE2046FFF7D1FB1FB10220F8
:1058700084F89C024BE084F89C6248E0204644E0B7
:10588000FFF75CFF054642E0CB88012B3DD190F845
:105890009C32012B04D0022B02D0032B35D104E023
:1058A0008260012200F1080116E00122011D13E0CF
:1058B00090F89C22012A03D0022A01D0032A24D185
:1058C000CA88022A21D1C660D0F8A41209B10321E6
:1058D000C160022200F10C01FFF78BFB17E04A8840
:1058E000012A02D0022A03D00FE0C0F8A46216E019
:1058F0008988090A80F8A01211E090F89C32012BE7
:1059000008D0022B06D0032B04D0FFF74BFB284610
:10591000BDE8F08149880129F9D1C0F8A422FFF738
:1059200076FBF4E72DE9F041054608780C790E4640
:105930004FF0000810F060000BD0202801D0402864
:105940006BD121462846FFF719FBFF2800D0D8B3BA
:1059500098E07078C8B3012824D003285DD195F869
:105960009C02022802D0032857D10CE0002C54D00E
:10597000802C52D021462846FFF77AFE8021284607
:10598000FFF776FE7EE0708840B93CB1802C05D0F0
:10599000C88818B921462846FFF76AFE2846FFF74F
:1059A00036FB6FE095F89C020228DFD0032866D111
:1059B000708888BB600603D021462846FFF78DFC1F
:1059C0002846FFF724FBBCE700E00AE0C5F8D40254
:1059D000D5F8B8028268FAB1314628469047804629
:1059E00050E095F89C020027022802D0032846D1F7
:1059F00014E00CB1802C42D1200604F07F0000EBB3
:105A0000800005EB800101D5143101E001F5AA7198
:105A1000022201F80E7F2EE034E030E0200604F090
:105A20000F0000EB800005EB80000AD590F8230002
:105A300028B304F07F0000EB800005EB80061436ED
:105A40000AE090F86301D0B104F07F0000EB800021
:105A500005EB800606F5AA764CB1802C07D02146CE
:105A60002846FFF737FD10B10120B07300E0B7738F
:105A7000022206F10E012846FFF7BBFA02E0284693
:105A8000FFF790FA4046BDE8F08170B5054608780A
:105A900000240E4610F0600003D0202801D04028DA
:105AA00027D195F89C02012803D0022801D00328B1
:105AB0001FD1B088C1B201291AD8C1B22846FFF758
:105AC0005FFAFF280CD058B9D5F8B8128A683AB1F5
:105AD000C5F8D4028A68314628469047044600E05B
